:020000000C945E
:100002002F000C9400000C9400000C9400000C943F
:1000120000000C9400000C9400000C9400000C945E
:1000220000000C9400000C9400000C9400000C944E
:1000320000000C9400000C9400000C9400000C943E
:1000420000000C9400000C9400000C9400000C942E
:10005200000001000200040054000000F894EE27A2
:10006200ECBBF1E0FBBFEBBFE5BF8DE0A2E0BB273D
:10007200ED938A95E9F780E094E0A0E6ED9301978D
:10008200E9F7E6E5F0E085919591009761F0A59199
:10009200B59105901590BF01F00105900D92019761
:1000A200E1F7FB01F0CFEFE5EDBFE4E0EEBFC0E624
:1000B200D1E00C945C00E0E0E8BBEFEFE7BB00248A
:1000C200401450041CF4E1E0F0E02F01A3E2B0E0A0
:1000D20005D048BA440C551CF2CFFFCF109639F028
:1000E200A89588EB9BE00197F1F71197C9F708955E
:00000001FF
