:040000000C94450017
:100004000C9400000C9400000C9400000C9400006C
:100014000C9400000C9400000C9400000C9400005C
:100024000C9400000C9400000C9400000C9400004C
:100034000C9400000C9400000C9400000C9400003C
:100044000C9400000C9400000C9400000C9400002C
:100054001027E80364000A000100001000011000EA
:10006400010000004E414D41004A414C414E0042C6
:10007400554E5455000080C0010005006600020082
:1000840060017A000000F894EE27ECBBF1E0FBBFBE
:10009400EBBFE5BF8DE0A2E0BB27ED938A95E9F7BE
:1000A40080E094E0A0E6ED930197E9F7ECE7F0E057
:1000B40085919591009761F0A591B5910590159062
:1000C400BF01F00105900D920197E1F7FB01F0CF1C
:1000D400EFE5EDBFE4E0EEBFC0E6D1E00C947200C2
:1000E400EFEFEBBBEABBE0E0E8BBE7BBE5BBE4BB9F
:1000F400E2BBE1BBE3BFE2BFECBFEFBDEEBDEDBDD4
:10010400ECBDE7BDE6BDEBBDEABDE9BDE8BDE2BDC2
:10011400E5BDE4BDE3BDE5BFE4BFE9BFEAB9E0E89E
:10012400E8B9E0E0E0BFE6B9EDB9E6BFA0E179D017
:10013400A3D0A8E6B0E066D05524EFE0E51578F04A
:100144009BD0ADE6B0E05ED05A92A1E02CD0A3E7FC
:10015400B0E058D0A2E3B0E0A9D05394EECFECCFF6
:10016400FFCF1A931A2FEBB3EF70AE2FE12FE07F7E
:10017400EA2BEBBB84E18A95F1F7DA9A84E18A955C
:10018400F1F7DA9884E18A95F1F774C0AA93A8810B
:10019400E8DFE881E295E883A881E3DF88EC8A95CB
:1001A400F1F7219608951A930A931A2F0A81E12FE1
:1001B400F0E0E05AFE4FE081E00FAE2FE7DF402E83
:1001C400712E1981088123960895A2E05AD0ACE0DB
:1001D400DDDFA1E056D0E0E07E2E4E2E08951A9386
:1001E4001A2F1A3011F0461438F0E0E0EA937394B1
:1001F400A72DD9DF1A30F1F14394D89AA12FC6DF85
:10020400D89838C049D09D01F9012F5F3F4FE49140
:100214001E2FE03019F0A12FE2DFF6CF42D0249652
:1002240008951A931A2FEAB3E06FEABBD29AD09AD0
:10023400D19ADA98D898D998612EE12FE058E093B2
:100244006201E12FE054E0936301A4E1B0E02ED019
:100254001CD01BD01AD0A0E284DF8CE291E001977D
:10026400F1F7A8E293DFA4E091DFA5E88FDFA6E031
:100274008DDFABDF19910895A8DFE0E0EA93A0E0F9
:1002840092CF84DFA3E0B0E011C0A0E36ADF8CE288
:1002940091E00197F1F708953A932A931A930A93F8
:1002A40008953B812A81198108810895109639F0B7
:1002B400A89588EB9BE00197F1F71197C9F708958A
:00000001FF
